:10000000D6C4000001C50000FFC40000FDC400000C
:10001000FBC40000F9C40000F7C40000F5C40000F0
:10002000F3C400000C94011A0C942E1A0C945B1A61
:10003000EBC40000E9C40000E7C40000E5C4000010
:10004000E3C40000E1C40000DFC40000DDC4000020
:10005000DBC40000D9C40000D7C400000C94803871
:10006000D3C400000C94483B0C94703CCDC40000F9
:10007000CBC40000C9C40000C7C40000C5C4000050
:10008000C3C40000C1C40000BFC40000BDC4000060
:100090000C94843B0C94A43CB7C400000C94571EF1
:1000A000B3C40000B1C40000AFC40000ADC4000080
:1000B000ABC40000A9C40000A7C40000A5C4000090
:1000C000A3C40000A1C400009FC400000C94C03B66
:1000D0000C94D83C99C400000C94FC3B0C940C3D4F
:1000E00093C40000084AD73B3BCE016E84BCBFFDE1
:1000F000C12F3D6C74319ABD56833DDA3D00C77FF8
:1001000011BED9E4BB4C3E916BAAAABE0000008090
:100110003F05A84CCDB2D44EB93836A9020C50B91F
:10012000918688083CA6AAAA2ABE000000803F4704
:100130004541523A20257820282575290057314518
:1001400052523A203078253032780A0053455256C0
:100150004552523A203078253032580A00457665AB
:100160006E7473207363686564756C6564004E6FAC
:100170007420656E6F7567682061726773005365E0
:1001800072766F20256420746F202564004E6F7492
:1001900020656E6F7567682061726773004D4F54FC
:1001A0004F525320554E4C4F434B4544004D6F74B6
:1001B0006F72202564206174202564004E6F7420C6
:1001C000656E6F7567682061726773004D4F544F9D
:1001D0005253204C4F434B45440073202D207374E1
:1001E0006F7020616E64206C6F636B20616C6C209B
:1001F0006D6F746F72730A75202D2072657175654D
:10020000737420756E6C6F636B206F6620626F7401
:1002100068206D6F746F72730A6720284D4F544FBA
:1002200052292028535045454429202D20736574B8
:10023000206D6F746F722073706565640A72202878
:10024000534552564F292028504F5329202D2073B3
:1002500065742072756464657220706F7369746967
:100260006F6E0A6520284D4F544F52292028535055
:1002700045454429202850554C534529202D2073AD
:10028000636865642070756C7365732066726F6D4A
:10029000206E6F770A00566F6C7461676520313A83
:1002A0002000566F6C7461676520303A2000204151
:1002B00075783A200020522D593A20004C2D593A99
:1002C00020004E4F542041204D4F44554C45005284
:1002D000432053455454494E4753005553452045F8
:1002E00049544845522072204F522077004D4F44C8
:1002F00045204249542025733A2025640A00436171
:100300006C6962726174696F6E2076616C75657379
:100310002073657400506C65617365207365747536
:100320007020636F6E74726F6C6C65722062793AC4
:10033000200A2020202D2053657420616C6C2073CE
:100340007469636B7320746F206D6964646C6520DD
:10035000706F736974696F6E0A2020202D205075AC
:10036000736820656E61626C652073776974636879
:1003700020617761792066726F6D20796F75202812
:10038000646F776E290A2020202D205275646465E1
:1003900072206B6E6F6220746F206D696E696D756F
:1003A0006D0A507265737320656E74657220746F88
:1003B00020636F6E74696E75652E002D3E200044BB
:1003C0004542554747494E47204255494C44002530
:1003D0006420256420256420253032643A2530329B
:1003E000643A253032640A004241524E41434C4542
:1003F0005F4C4154454E43593A20256C750A0045DF
:100400004E433A2057313A2025752054313A202561
:10041000750A202020202057323A2025752054329A
:100420003A2025750A00434841524745523A205622
:100430006F6C74616765202D3E2025750A20202091
:1004400020202020202043757272656E74202D3E7E
:100450002025750A00424154544552593A20566F9E
:100460006C74616765202D3E2025750A20202020B0
:10047000202020202043757272656E74202D3E204E
:1004800025750A00506F77657220626F78004D31D4
:100490003A20557074696D65202D3E20256C7520BD
:1004A0006D7365630A20202020566F6C746167208D
:1004B0002D3E202575206D560A2020202054454DC4
:1004C000502020202D3E2025750A20202020455236
:1004D000524F5253202D3E203078253032780A007A
:1004E000506F6C6F6C7520636F6E74726F6C6C659F
:1004F00072730A4D303A20557074696D65202D3E37
:1005000020256C75206D7365630A20202020566FAE
:100510006C746167202D3E202575206D560A2020C1
:10052000202054454D502020202D3E2025750A20A6
:100530002020204552524F5253202D3E2030782506
:100540003032780A005D3E20004449417C00414938
:10055000527C0052437C00496E697469616C697316
:100560006174696F6E20636F6D706C6574652C20AB
:100570006177616974696E6720636F6D6D616E6428
:1005800073004F4B415921004261726E61636C658B
:10059000207265626F6F74202832292E2E2E004F34
:1005A0004B41592100526573657474696E6720620E
:1005B00061726E61636C65207469636B20636F7533
:1005C0006E746572732E2E2E004F4B4159210052CE
:1005D00054432068617320736574207468652073C8
:1005E000797374656D2074696D6500556E61626C18
:1005F0006520746F2073796E632077697468207446
:100600006865205254430053657474696E672073A3
:10061000797374656D2074696D652E2E2E004F4BB5
:1006200041592100496E69742077697265206E65B1
:1006300074776F726B2E2E2E004F4B415921004262
:1006400061726E61636C65207265626F6F742028E1
:1006500031292E2E2E004F4B4159210053657474C1
:10066000696E67206D6F746F7220696E666F726D50
:100670006174696F6E2E2E2E004F4B41592100522E
:1006800065676973746572696E6720636C6920665B
:10069000756E63732E2E2E004F4B41592100496E0B
:1006A000697420616C6C2073657269616C20706F75
:1006B0007274732E2E2E002D2D2D2D2D2D2D2D2DC2
:1006C0002D2D2D2D2D2D2D2D2D2D2D2D2D00476139
:1006D000656C666F726365207374617274696E67AE
:1006E000207570210000C201000100110011000CF2
:1006F0000000E100000A002500250021000096000E
:10070000001900390039003600127A00001F004637
:1007100000460044008070000022004D004D004A59
:1007200000004B0000360075007500720040380074
:10073000004A009C009C009900802500007200EC9B
:1007400000EC00E900C0120000E900DA01DA01D78C
:100750000160090000D701B603B603B303B004007B
:1007600000B3036E076E076B07580200006E07DCCC
:100770000EDC0ED80E2C010000DC0EC11DC11DBE0A
:100780001D57494E442D3E5350443A257520414E45
:10079000473A25752052454C3A25630A0053657443
:1007A0003A204D28257529202825752F25752900E3
:1007B0004449523A20256409544552523A2025644E
:1007C00009504F5343483A202564094E504F533A3D
:1007D000202564005550444154494E4720504F5302
:1007E0004954494F4E0054415247455420524541C7
:1007F00043484544004C6973742025753A2030788D
:1008000025582C206E78743A2030782558004355AE
:10081000523A202575205441523A202575004175E1
:1008200078004765617220737769746368005900C6
:1008300058004C65667420737469636B00590058E6
:1008400000526967687420737469636B000000214B
:1008500000240027002A002D003000330001010091
:1008600000040107010A0100002200250028002BD6
:10087000002E003100340002010000050108010BC8
:1008800001000020002300260029002C002F003248
:100890000000010000030106010901050505050727
:1008A0000508080808020202020A0A0808040404EB
:1008B0000401010101010101010303030303030317
:1008C00003040707070C0C0C0C0C0C0C0C020202A6
:1008D0000206060606060606060B0B0B0B0B0B0B99
:1008E0000B01021020200808102040102040800238
:1008F0000102010804020101020408102040808066
:1009000040201008040201800402018040201008E9
:1009100004020108040201010204081020408001C1
:10092000020408102040800000090A02080B0C0D88
:1009300007060304010000000000000000000000A2
:1009400000000000000000000000000000000000A7
:1009500000000011100F0000000000000000000067
:1009600000000000000000000000000000494E46AA
:10097000494E4954594E414ECDCCCC3D0AD7233C2B
:1009800017B7D13877CC2B329595E6241FB14F0A93
:10099000000020410000C84200401C4620BCBE4C64
:1009A000CA1B0E5AAEC59D743E1DDD204D3E11245E
:1009B0001FBECFEFD1E2DEBFCDBF00E00CBF13E022
:1009C000A0E0B2E0E8ECFDE800E00BBF02C0079059
:1009D0000D92AA3EB107D9F71BBE18E0AAEEB3E00C
:1009E00001C01D92AE32B107E1F719E0CEEAD9E0BD
:1009F00004C02297FE010E949C46C83AD107C9F75D
:100A00000E94833F0C94E246FBCAEF92FF920F9341
:100A1000DF93CF93CDB7DEB760970FB6F894DEBF04
:100A20000FBECDBFA82F002309F461C07E0108943A
:100A3000E11CF11C88E0F70111928A95E9F72983FE
:100A40003A834B835C836D837E83AF83988780E298
:100A5000801BE82FFF27E7FDF09549815A816B81C4
:100A60007C81181684F019861A861B861C868827B6
:100A700099278E1B9F0B04C0440F551F661F771FBD
:100A80008A95D2F728C0202F332727FD3095DB0128
:100A9000CA01022E04C0880F991FAA1FBB1F0A9407
:100AA000D2F789879A87AB87BC8704C0769567950C
:100AB00057954795EA95D2F78D819E81AF81B8858C
:100AC00004C0880F991FAA1FBB1F2A95D2F7482B75
:100AD000592B6A2B7B2B4D875E876F87788B2985F7
:100AE0003A854B855C856D857E85AF8598898A2F93
:100AF00060960FB6F894DEBF0FBECDBFCF91DF91E9
:100B00000F91FF90EF900895A0E0B0E0EAE8F5E0E3
:100B10000C94B146EC015B016115710519F0FB0104
:100B200091838083F9908F2D90E00E94A046892BBD
:100B3000C9F7FDE2FF1621F4F990EE24E39405C015
:100B40002BE2F21609F4F990EE248E0101501040C8
:100B5000C8016DE679E043E050E060D3892BF9F4F9
:100B60008E010E5F1F4FC80160E779E045E050E05D
:100B700055D3892B19F48E01095F1F4FA114B104BD
:100B800019F0F50111830083E0FC04C070E090E0EF
:100B900080E813C070E090E080E86FEF07C1C80103
:100BA00065E779E043E050E039D3892B69F4A1147B
:100BB000B10429F470E090E080EC6FE7F7C0229672
:100BC000F501D183C083F6CF8824992440E050E01A
:100BD00060E070E0EF2DE053EA30A0F5F2E0EF2A9C
:100BE0008E2D90E09C0128703070E2FE06C0232B11
:100BF00079F50894811C911C2BC0232B19F00894C3
:100C000081089108DB01CA0112E0880F991FAA1F11
:100C1000BB1F1A95D1F7480F591F6A1F7B1F440F3E
:100C2000551F661F771F4E0F511D611D711D4839DD
:100C300029E9520729E9620729E1720748F084E0AF
:100C4000E82A06C0EE3F31F4E3FC39C098E0E92A17
:100C5000F990C0CFE53311F0E53189F529912D32B6
:100C600019F4E0E1EE2A05C02B3219F081E090E0A2
:100C700003C0299182E090E0E22FE053EA3018F0BF
:100C8000C81BD90B1CC020E030E0FCE020383F0737
:100C90005CF4C901880F991F880F991F280F391F0D
:100CA000220F331F2E0F311DE991E053EA3068F314
:100CB000E4FE03C0309521953F4F820E931ECE2C4B
:100CC000DD24E1FE07C0A114B10421F02197F50154
:100CD000D183C083CB01BA010E940D447B018C01FA
:100CE000F3E0CF22DD2423E0C216D10421F417FB68
:100CF000109517F9109557016801C801B70120E058
:100D000030E040E050E00E946D43882309F44AC07F
:100D100097FE0DC02CE8E22E29E0F22E90948194EB
:100D200091089394C0E2D0E000E010E012C094EA91
:100D3000E92E99E0F92EF6CFF701259135914591ED
:100D40005491C601B5010E9431455B016C018C1ABA
:100D50009D0A8C169D0684F7D595C7950F5F1F4F8A
:100D60000630110529F08CEF9FEFE80EF91EF1CF48
:100D7000C501D6017C018D018C2D880F8D2D881F1A
:100D80008F3F51F0C601B50120E030E040E050E077
:100D90000E946D43882331F482E290E090932D0805
:100DA00080932C087E2D9F2D802F612F272F392F88
:100DB000482F562FB901CA01CDB7DEB7ECE00C942D
:100DC000CD462F923F925F926F927F928F929F9229
:100DD000AF92BF92CF92DF92EF92FF920F931F9349
:100DE000CF93DF938C011B01EA016115710519F0A6
:100DF000FB0191838083209749F0CE01029783976E
:100E000028F020E030E040E050E0F6C0F801A1908A
:100E10008F018A2D90E00E94A046892BB9F7FDE250
:100E2000AF1631F4F801A1908F015524539407C0F7
:100E3000FBE2AF1619F4F801A1908F015524209719
:100E400019F0C031D105C1F4F0E3AF1679F4F8011F
:100E50008081883711F0883549F4F801A1800E5F50
:100E60001F4FF2E05F2AC0E1D0E006C0209721F4D6
:100E700080E3A816E9F427C0C830D10531F1C930A4
:100E8000D10524F4C230D10531F50CC0CA30D105EA
:100E900089F0C031D105F9F4C12CD12CE12CB8E096
:100EA000FB2E28C0C12CD12CE12CA0E4FA2E22C0AC
:100EB000CAE0D0E0FCECCF2EFCECDF2EFCECEF2EF9
:100EC000FCE0FF2E17C0C8E0D0E0C12CD12CE12CF3
:100ED000E0E1FE2E0FC09E01442737FD4095542FC0
:100EE00060E070E080E090E80E944946C901DA01C4
:100EF0006C017D0120E030E040E050E060E03E0128
:100F0000882477FC8094982C70EDB72EBA0CE9E019
:100F1000EB1570F48A2D81548A3118F499ECB92EAE
:100F200006C08A2D81568A3150F589EAB82EBA0C4E
:100F30008B2D90E08C179D0714F56F3FE1F0C216E2
:100F4000D306E406F506B0F0CA01B901A401930185
:100F50000E9417469B01AC012B0D311D411D511DF7
:100F60002130F0E03F07F0E04F07F0E85F0710F4B2
:100F700061E001C06FEFF801A1908F01C5CF21148E
:100F8000310481F0662331F001501040F1011183EA
:100F9000008308C051FE1AC002501040F1011183B5
:100FA000008314C067FF12C050FC05C02FEF3FEF55
:100FB0004FEF5FE704C020E030E040E050E882E21D
:100FC00090E090932D0880932C0816C050FE08C026
:100FD00050954095309521953F4F4F4F5F4F0CC036
:100FE00057FF0AC082E290E090932D0880932C086E
:100FF0002FEF3FEF4FEF5FE7B901CA01DF91CF91CC
:101000001F910F91FF90EF90DF90CF90BF90AF9026
:101010009F908F907F906F905F903F902F9008955A
:10102000A0E0B0E0E6E1F8E00C94AC46EC012B0166
:101030006A016115710519F0FB0191838083C11468
:10104000D10449F0C6010297839728F020E030E0F0
:1010500040E050E0DCC0A9908A2D90E00E94A046BC
:10106000892BC9F7FDE2AF1621F4A99033243394FC
:1010700005C08BE2A81609F4A9903324C114D10449
:1010800021F0E0E1CE16D10411F5F0E3AF1669F4DA
:101090008881883711F0883541F4A980229682E052
:1010A000382A20E1C22ED12C12C0C114D10479F407
:1010B000E0E3AE1659F199E9E92E99E9F92E99E99B
:1010C000092F99E1192F8AE0C82ED12C3AC0FAE0F5
:1010D000CF16D10491F080E1C816D10429F0E8E0E0
:1010E000CE16D104F9F415C0BFEFEB2EBFEFFB2EE7
:1010F000BFEF0B2FBFE01B2F24C0A9E9EA2EA9E9FF
:10110000FA2EA9E90A2FA9E11A2F1BC0F8E0CF2E69
:10111000D12CEFEFEE2EEFEFFE2EEFEF0E2FEFE1E3
:101120001E2F0FC09601442737FD4095542F6FEFB7
:101130007FEF8FEF9FEF0E944946C901DA017C01E2
:101140008D0120E030E040E050E060E0360188248E
:1011500077FC8094982C70EDB72EBA0CF9E0FB1553
:1011600070F48A2D81548A3118F499ECB92E06C096
:101170008A2D81568A3148F589EAB82EBA0C8B2D12
:1011800090E08C159D050CF56F3FE9F0E216F30633
:1011900004071507B8F0CA01B901A40193010E9420
:1011A00017469B01AC018B2D90E0A0E0B0E0280F2A
:1011B000391F4A1F5B1F281739074A075B0710F0C2
:1011C00061E001C06FEFA990C6CF4114510451F006
:1011D000662311F0219703C031FE04C02297F2016B
:1011E000D183C08330FE07C050954095309521953E
:1011F0003F4F4F4F5F4F67FF0AC082E290E09093EE
:101200002D0880932C082FEF3FEF4FEF5FEFB901D0
:10121000CA01CDB7DEB7E1E10C94C846FB01DC01A1
:101220004150504088F08D9181341CF08B350CF486
:10123000805E659161341CF06B350CF4605E861B3A
:10124000611171F3990B0895881BFCCFFC0141508B
:10125000504030F001900616D1F73197CF01089534
:10126000882799270895FB01DC0102C001900D92A7
:1012700041505040D8F708956817790768F4FB018A
:10128000DC01E40FF51FA40FB51F02C002900E92FF
:1012900041505040D8F70895E6CFFB01DC014150A2
:1012A000504088F08D9181341CF08B350CF4805EB9
:1012B000619161341CF06B350CF4605E861B61112A
:1012C00071F3990B0895881BFCCFAEE0B0E0EBE61C
:1012D000F9E00C94B9460E891F89888D998D97FF86
:1012E00002C080E090E801979E838D831A83098372
:1012F0008EE08C839E01245E3F4FCE0101966A8D65
:101300007B8DA90112D04D815E8157FD0AC02F81CE
:101310003885421753070CF49A01020F131FF80186
:1013200010822E96E4E00C94D546ABE0B0E0EBE9F9
:10133000F9E00C94AB463C012B015A01FC011782E9
:101340001682838181FD03C06FEF7FEFB9C19AE000
:10135000892E1E010894211C311CF3012381F20106
:1013600023FD859123FF81912F01882309F4A5C1D5
:10137000853239F423FD859123FF81912F01853238
:1013800021F490E0B301B7D1E8CF982FFF24EE24E9
:101390009924FFE1FF15D0F09B3269F09C3228F4CC
:1013A000903259F0933291F40EC09D3249F090334F
:1013B00069F441E024C052E0F52A84E0F82A28C00C
:1013C00098E0F92A25C0E0E1FE2A22C0F7FC29C0F6
:1013D000892F80538A3070F4F6FE05C0989C902CBB
:1013E0001124980E15C0E89CE02C1124E80EF0E2C0
:1013F000FF2A0EC09E3229F4F6FC5FC140E4F42AB5
:1014000007C09C3619F450E8F52A02C0983649F412
:10141000F20123FD959123FF91912F01992309F06A
:10142000B8CF892F8554833018F08052833038F438
:1014300044E050E0A40EB51E5FE359830FC093361D
:1014400031F0933779F0933509F052C01FC0F501A0
:101450008081898342E050E0A40EB51E610101E065
:1014600010E011C0F501C080D180F6FC03C06FEF21
:101470007FEF02C0692D70E042E050E0A40EB51E7F
:10148000C6012ED18C015FE7F52213C0F501C080A3
:10149000D180F6FC03C06FEF7FEF02C0692D70E0D2
:1014A00042E050E0A40EB51EC6010FD18C0150E8F9
:1014B000F52AF3FE06C018C080E290E0B3011BD10C
:1014C000EA948E2D90E008171907B0F30DC0F601CD
:1014D000F7FC8591F7FE81916F0190E0B3010BD18C
:1014E000E110EA94015010400115110581F7E2C0A6
:1014F000943611F0993661F5F7FE08C0F5012081A8
:1015000031814281538184E090E00AC0F5018081FD
:1015100091819C01442737FD4095542F82E090E053
:10152000A80EB91E9FE6F92257FF09C050954095B5
:10153000309521953F4F4F4F5F4FE0E8FE2ACA019B
:10154000B901A1012AE030E002D1D82ED2183FC063
:10155000953729F41F2D1F7E2AE030E01DC01F2D76
:10156000197F9F3661F0903720F4983509F0A5C0B7
:101570000FC0903739F0983709F09FC004C028E0B9
:1015800030E00AC0106114FD146020E130E004C0B6
:1015900014FD166020E132E017FF08C0F5016081FC
:1015A00071818281938144E050E008C0F50180811F
:1015B0009181BC0180E090E042E050E0A40EB51EB5
:1015C000A101C5D0D82ED2188FE7F82EF122F6FE51
:1015D0000BC05EEFF522D91438F4F4FE07C0F2FC1C
:1015E00005C08FEEF82202C01D2D01C0192DF4FE9A
:1015F0000DC0FE01ED0DF11D8081803319F499EECF
:10160000F92208C01F5FF2FE05C003C08F2D867847
:1016100009F01F5F0F2DF3FC13C0F0FE0EC01E1566
:1016200010F09D2C0AC09D2C9E0C911A1E2D05C0F9
:1016300080E290E0B3015FD01F5F1E15C8F304C0C5
:101640001E1510F4E11A01C0EE2404FF0EC080E361
:1016500090E0B30150D002FF1BC001FD03C088E73A
:1016600090E00EC088E590E00BC0802F867881F076
:1016700001FF02C08BE201C080E2F7FC8DE290E046
:10168000B30139D005C080E390E0B30134D09A941F
:10169000D914C8F3DA94F101ED0DF11D808190E0C9
:1016A000B30129D0DD20B1F705C080E290E0B3019D
:1016B00022D0EA94EE20C9F750CEF30166817781FB
:1016C000CB012B96E2E10C94C746FC0105906150DA
:1016D00070400110D8F7809590958E0F9F1F089548
:1016E000FC016150704001900110D8F780959095F1
:1016F0008E0F9F1F08950F931F93CF93DF938C013D
:10170000EB018B8181FF1BC082FF0DC02E813F81C9
:101710008C819D812817390764F4E881F981019350
:10172000F983E88306C0E885F985802F1995892B10
:1017300031F48E819F8101969F838E8302C00FEFCB
:101740001FEFC801DF91CF911F910F910895FA010A
:10175000AA27283051F1203181F1E8946F936E7FF0
:101760006E5F7F4F8F4F9F4FAF4FB1E03ED0B4E0E1
:101770003CD0670F781F891F9A1FA11D680F791F22
:101780008A1F911DA11D6A0F711D811D911DA11D33
:1017900020D009F468943F912AE0269F1124301943
:1017A000305D3193DEF6CF010895462F4770405DDE
:1017B0004193B3E00FD0C9F7F6CF462F4F70405D8D
:1017C0004A3318F0495D31FD4052419302D0A9F7E8
:1017D000EACFB4E0A6959795879577956795BA95E2
:1017E000C9F700976105710508959B01AC010A2EA8
:1017F00006945795479537952795BA95C9F7620F7F
:10180000731F841F951FA01D08954F925F926F92C2
:101810007F928F929F92AF92BF92CF92DF92EF9280
:10182000FF920F931F93DF93CF93CDB7DEB7A897A7
:101830000FB6F894DEBF0FBECDBF4C012B013A01AD
:101840000E94C8382091590430915A0440915B0499
:1018500050915C04621B730B840B950B6A3071050D
:101860008105910508F485C10E94C8386093590428
:1018700070935A0480935B0490935C04D401559652
:101880002C91559756963C91569757964C91579751
:1018900058965C91589759966C9159975A967C91A5
:1018A0005A975B968C910E94CC33B1E0853F9B07A1
:1018B00014F084EF91E000D00F92EDB7FEB73196AF
:1018C0009C018EEF2C30380714F42CE03EEFB90168
:1018D000882777FD8095982F20E639E040E050E09A
:1018E00020833183428353832CE03EEF4FEF5FEF41
:1018F000B4EFEB2EB1E0FB2E012D112DA8E5AA2EA1
:10190000A2E0BA2EC12CD12C0E945E429B01AC01F8
:101910000F900F900F900F90C301B9010E94EE2E0F
:10192000C30161E240E00E94242F7C0165E070E089
:1019300080E090E00E945E39E114F10451F1ADB70E
:10194000BEB718970FB6F894BEBF0FBEADBFEDB7C8
:10195000FEB731968E010F5F1F4F12961C930E93A8
:10196000119788E290E0938382838CE491E09583E1
:101970008483F782E682A9DCEDB7FEB738960FB60E
:10198000F894FEBF0FBEEDBF80EA95E0B8010E945B
:101990007841D40117962C91179718963C91189777
:1019A00019964C9119971A965C911A971B966C91FF
:1019B0001B971C967C911C971D968C910E94CC3392
:1019C000B1E0853F9B0714F084EF91E03C01EEEF1E
:1019D0008C309E0724F4FCE06F2EFEEF7F2E00D0AB
:1019E0000F92EDB7FEB73196930177FE04C0222720
:1019F000332726193709B901882777FD8095982F55
:101A000020E83CE040E050E0208331834283538370
:101A100020E030E040E050E0E4EFEE2EE1E0FE2E8A
:101A2000012D112DAA24BB2465010E945E426B0189
:101A30007C0182010D5F1F4F0F900F900F900F9050
:101A4000C80161E00E94772E40E0161417040CF4E0
:101A500041E0C801B6010E94A22E65E070E080E07E
:101A600090E00E945E39C80160E00E94A52F9C01B1
:101A7000009761F18DB79EB708970FB6F8949EBF97
:101A80000FBE8DBFEDB7FEB731968E010F5F1F4FB2
:101A9000ADB7BEB712961C930E93119788E290E0F3
:101AA000938382838DE391E09583848337832683B8
:101AB0000CDCEDB7FEB738960FB6F894FEBF0FBE3C
:101AC000EDBF80EA95E0B8010E947841D4015C96B0
:101AD0002C915C975D963C915D975E964C915E97DC
:101AE0005F965C915F9790966C91909791967C91A0
:101AF000919792968C910E94A233F82EF401248D36
:101B0000358D468D578D60A171A182A10E94CC3385
:101B10002DB73EB72A5030400FB6F8943EBF0FBEE7
:101B20002DBFEDB7FEB731968E010F5F1F4FADB7DA
:101B3000BEB712961C930E93119728E230E03383C0
:101B400022832FE231E035832483F6821782918746
:101B50008087BBDBEDB7FEB73A960FB6F894FEBFB1
:101B60000FBEEDBF8091EE039091EF03B8010E948C
:101B70004D42A8960FB6F894DEBF0FBECDBFCF91F1
:101B8000DF911F910F91FF90EF90DF90CF90BF906A
:101B9000AF909F908F907F906F905F904F9008953F
:101BA0000F931F930091EE031091EF030E941323F4
:101BB000AB01BC01C8012AE030E00E94B2401F9195
:101BC0000F910895CF92DF92EF92FF920F931F93A0
:101BD00009E314E0C80161E00E94772E83E0E82E5B
:101BE000F12CE00EF11EC70161E00E94772EC801C2
:101BF00068EE73E045E00E94A22EC70168EE73E034
:101C000045E00E94A22EC80167E10E94A52F6C0149
:101C100000EA15E0C80162EA72E00E94CB3FC80109
:101C2000B6014AE050E00E94D440C70167E10E943B
:101C3000A52F7C01C80166E972E00E94CB3FC80174
:101C4000B7014AE050E00E94D4401F910F91FF90ED
:101C5000EF90DF90CF9008958091EE039091EF0385
:101C600065E173E00E941640E091EE03F091EF030E
:101C7000A081B18114962D913C911597CF01F90166
:101C80001995892B89F3E091EE03F091EF03A08180
:101C9000B18116962D913C911797CF01F9011995B5
:101CA0008137910519F48FEF9FEF089520917A0302
:101CB00030917B0340917C0350917D0360917E03C2
:101CC00070917F03809180030E94F433909380038E
:101CD00080937F032091810330918203409183039D
:101CE00050918403609185037091860380918703EE
:101CF0000E94F43390938703809386032091880396
:101D00003091890340918A0350918B0360918C0339
:101D100070918D0380918E030E94F43390938E0313
:101D200080938D0320918F03309190034091910314
:101D30005091920360919303709194038091950365
:101D40000E94F4339093950380939403209196031B
:101D500030919703409198035091990360919A03B1
:101D600070919B0380919C030E94F43390939C0399
:101D700080939B0320919D0330919E0340919F038C
:101D80005091A0036091A1037091A2038091A303DD
:101D90000E94F4339093A3038093A2038091EE03F7
:101DA0009091EF036EEF72E00C9416400F931F9327
:101DB00080EA95E00E94C73D181619060CF463C02E
:101DC00080EA95E00E94E33D8137910509F45BC00C
:101DD00020918F0330919003409191035091920391
:101DE0006091930370919403809195030E94F43362
:101DF0008C0180EA95E06CEB72E00E94CB3F80EAB8
:101E000095E0B8014AE050E00E94494120918103E9
:101E10003091820340918303509184036091850344
:101E200070918603809187030E94F4338C0180EACD
:101E300095E065EB72E00E94CB3F80EA95E0B80147
:101E40004AE050E00E94494120919D0330919E0359
:101E500040919F035091A0036091A1037091A20350
:101E60008091A3030E94F4338C0180EA95E06EEA2E
:101E700072E00E94CB3F80EA95E0B8014AE050E072
:101E80000E945B4195CF1F910F910895AF92BF9231
:101E9000DF92EF92FF920F931F93DF93CF930F92F6
:101EA0000F92CDB7DEB7FC01009721F080819181C0
:101EB00002971CF48EEF9FEF67C00480F581E02D40
:101EC0008281938160E00E9424259A83898360E067
:101ED00070E04AE050E0A4D8062F89819A810E94E0
:101EE0000B3780EA95E060E072E00E94784180EA7A
:101EF00095E0602F4AE050E00E94EF40013029F465
:101F000032E4A32E36E0B32E0DC0023029F424EEC5
:101F1000A22E26E0B22E06C0033021F496E8A92EA8
:101F200097E0B92EDA2C0B2DD501ED91FC910480B0
:101F3000F581E02DC5011995181619066CF4D50127
:101F4000ED91FC910680F781E02DC5011995682F70
:101F500080EA95E00E94EE3F80EA95E00E94C73D4E
:101F6000181619060CF7D501ED91FC91E080F1806F
:101F700080EA95E00E94E33D182F8D2D902F612F70
:101F8000F7011995113781F60F900F90CF91DF91DE
:101F90001F910F91FF90EF90DF90BF90AF90089549
:101FA000DF92EF92FF920F931F936091EE03709177
:101FB000EF038BE494E00E940631DD2437C081E01A
:101FC000D81651F48BE494E00E94E0318BE494E065
:101FD0000E943430D82E2AC08BE494E00E94033251
:101FE000D82EE0905D04F0905E0400915F041091A3
:101FF00060040E94C8386E157F0580079107B0F015
:102000000E94C8386C507E4F8F4F9F4F60935D0485
:1020100070935E0480935F04909360046091EE037C
:102020007091EF038BE494E00E947F31E091EE0326
:10203000F091EF03A081B18116962D913C911797F5
:10204000CF01F90119958137910509F0B8CF1F919A
:102050000F91FF90EF90DF900895FF920F931F93E1
:1020600080EA95E06CE072E00E944D4280EA95E0E3
:102070006AE272E00E944D4280EA95E06FEB73E005
:102080000E941640FF2429C00F2D10E0000F111FE1
:10209000000F111FF801EE50FC4F6181728180EA40
:1020A00095E040E150E00E94C44080EA95E06BEB8F
:1020B00073E00E94CB3F00511C4FF8018181928157
:1020C00060E00E9424258C0180EA95E0B8010E941E
:1020D0004D42C8010E940B37F3948091F003F8162B
:1020E00098F21F910F91FF900895CF93DF93DC0139
:1020F000EB0109900020E9F72197C61BD70B149636
:102100008D919C91159712964D915C911397C417E0
:10211000D50708F4AE01C1D890E0882309F491E016
:10212000892FDF91CF910895CF92DF92EF92FF92A6
:102130000F931F93DF93CF93CDB7DEB76E970FB694
:10214000F894DEBF0FBECDBF7C01DC01CD90DC90EA
:10215000B2E0CB16D1045CF48091EE039091EF03D2
:102160006AED71E00E94CB3F8FEF9FEFD0C1DC01A1
:102170001496ED91FC91159702811381C80169E4D1
:1021800072E0B3DF882359F189E394E060E070E006
:1021900045E00E94A22E89E394E060E00E94772E41
:1021A0008CE394E060E070E045E00E94A22E8CE3B6
:1021B00094E060E00E94772E83E394E060E070E0BA
:1021C0000E94EE2E86E394E060E070E00E94EE2E26
:1021D0008091EE039091EF036CEC71E096C1C80121
:1021E0006BE472E082DF882309F48EC0B2E0CB1684
:1021F000D10441F48091EE039091EF036CEB71E018
:102200000E941640D7011496ED91FC911597048019
:10221000F581E02D8481958160E070E04AE050E036
:102220000E94E106062F16160CF401E0D701149661
:10223000ED91FC9115970680F781E02D84819581C1
:1022400060E070E04AE050E00E94E106CB01BCE0B3
:1022500061387B0714F080E89CE06C01E3EF803884
:102260009E0724F4E0E8CE2EE3EFDE2E602F07FD7C
:1022700060E0062F112707FD10958DB79EB70A97CE
:102280000FB6F8949EBF0FBE8DBFEDB7FEB7319667
:102290007E010894E11CF11CADB7BEB71296FC920A
:1022A000EE9211978EE190E0938382838DEA91E024
:1022B0009583848317830683D186C08606D8EDB7BD
:1022C000FEB73A960FB6F894FEBF0FBEEDBF8091F1
:1022D000EE039091EF03B7010E944D42C801880FB1
:1022E000991F800F911F875C9B4FB601D7FE04C0DA
:1022F000662777276C197D0940E01C141D040CF03B
:1023000041E00E94A22E03C1C8016DE472E0EDDE3F
:10231000882389F089E394E061E00E94772E8CE3C2
:1023200094E061E00E94772E8091EE039091EF039C
:102330006DE971E0EAC0C8016FE472E0D6DE88237F
:1023400009F47DC0F2E0CF16D10441F48091EE0390
:102350009091EF036DE871E00E941640D70114964A
:10236000ED91FC9115970480F581E02D8481958194
:1023700060E070E04AE050E00E94E106062F161689
:102380000CF401E0D7011496ED91FC9115970680AD
:10239000F781E02D8481958160E070E04AE050E0B3
:1023A0000E94E106B9E161307B0714F060E079E159
:1023B0006B0177FF02C0CC24DD24602F07FD60E0B5
:1023C000062F112707FD1095EDB7FEB73A970FB608
:1023D000F894FEBF0FBEEDBF31967E010894E11C5C
:1023E000F11CADB7BEB71296FC92EE9211978EE13A
:1023F00090E0938382838EE791E0958384831783B3
:102400000683D186C0860E946509EDB7FEB73A966D
:102410000FB6F894FEBF0FBEEDBF8091EE03909112
:10242000EF03B7010E944D42C801880F991F800F2A
:10243000911F8D5C9B4FB6010E94EE2E68C0C801B3
:1024400061E572E052DE882309F461C0F4E0CF1642
:10245000D10444F48091EE039091EF036EE671E0B5
:102460000E941640D7011496ED91FC9115970480B7
:10247000F581E02D8481958160E070E04AE050E0D4
:102480000E94E106D7011496ED91FC911597068004
:10249000F781E02D8481958160E070E04AE050E0B2
:1024A0000E94E1068B01BCE061387B0714F000E874
:1024B0001CE0D7011496ED91FC9115970084F185ED
:1024C000E02D8481958160E070E04AE050E00E9458
:1024D00010086B017C01B801B3EF00381B0714F43E
:1024E00060E873EF8BE494E040E050E00E945E30DF
:1024F0008BE494E060E070E0A6010E945E30809181
:10250000EE039091EF036DE571E00E9416406E9628
:102510000FB6F894DEBF0FBECDBFCF91DF911F91F4
:102520000F91FF90EF90DF90CF900895FF920F935F
:102530001F93CF93DF93FC018081918103970CF46B
:1025400046C004811581F801C281D381CE0163E5C3
:1025500072E0CBDD882369F4CE016FE472E0C5DD63
:10256000882311F0FF2407C080EA95E06BED72E04C
:102570002CC0FF24F394F8018481958165E572E015
:10258000B4DD8823F1F080EA95E06FEC72E00E9400
:102590001640FF2039F488E090E06AE773E00E947B
:1025A000EE3206C088E090E06AE773E00E940533EF
:1025B00080EA95E06AE773E00E94323320E030E081
:1025C00008C080EA95E062EC72E00E94CB3F2FEFFA
:1025D0003FEFC901DF91CF911F910F91FF900895B7
:1025E000CF92DF92EF92FF920F931F93DF93CF93DF
:1025F000CDB7DEB7E2970FB6F894DEBF0FBECDBF02
:10260000FC018081918103971CF42FEF3FEF7EC086
:10261000C480D580D60114960D911C911597C801E0
:1026200068E572E062DD882321F0B8E0EB2EF12C42
:1026300016C0C80165E572E058DD882321F0A4E0EA
:10264000EA2EF12C0CC0C8016CE572E04EDD882347
:1026500019F42EEF3FEF5AC0F0E1EF2EF12CF60106
:1026600002811381C80160E672E03FDD20917803AA
:1026700030917903882319F02E293F2905C0C7011D
:1026800080959095282339233093790320937803FC
:10269000C80160E672E029DD882319F424E632E0FF
:1026A00002C02AE632E08DB79EB70A970FB6F894BB
:1026B0009EBF0FBE8DBFEDB7FEB731968E010F5F87
:1026C0001F4FADB7BEB712961C930E93119782E3BE
:1026D00090E0938382838DEE92E0958384833783A9
:1026E0002683F186E0860E946509EDB7FEB73A962B
:1026F0000FB6F894FEBF0FBEEDBF8091EE03909130
:10270000EF03B8010E94784120E030E0C901E29671
:102710000FB6F894DEBF0FBECDBFCF91DF911F91F2
:102720000F91FF90EF90DF90CF90089587E060E0E9
:102730000E94793A6AEF70E080E090E00E945E3992
:1027400087E061E00E94793A6AEF70E080E090E013
:102750000C945E39EBCF08954F925F926F927F9207
:102760008F929F92AF92BF92CF92DF92EF92FF92A1
:102770000F931F93DF93CF93CDB7DEB764970FB658
:10278000F894DEBF0FBECDBF2C010E94BC233C01DC
:102790000E94BE234C010E94C4235C010E94D623E8
:1027A0006C010E94D0237C010E94CA232DB73EB742
:1027B000225130400FB6F8943EBF0FBE2DBFEDB78B
:1027C000FEB731968E010F5F1F4FADB7BEB71296A1
:1027D0001C930E93119724E130E0338322832FEC76
:1027E00033E0358324837782668291868086B38640
:1027F000A286D586C486F786E686918B808B0E945A
:1028000065092DB73EB72E5E3F4F0FB6F8943EBF19
:102810000FBE2DBFC201B8010E94784164960FB669
:10282000F894DEBF0FBECDBFCF91DF911F910F9106
:10283000FF90EF90DF90CF90BF90AF909F908F90E0
:102840007F906F905F904F9008952F923F924F929C
:102850005F926F927F928F929F92AF92BF92CF9230
:10286000DF92EF92FF920F931F93DF93CF93CDB739
:10287000DEB7CE58D0400FB6F894DEBF0FBECDBF46
:102880008C01DC011496BC91C557DF4FB883CB583F
:10289000D040FC01F581C457DF4FF883CC58D040BD
:1028A0009E012F5F3F4FC357DF4F39832883CD5899
:1028B000D04088E7D9011D928A95E9F7C557DF4FC7
:1028C0008881CB58D040C457DF4F9881CC58D04036
:1028D0000E94F63FF801848195813EDF09E3602E76
:1028E00004E0702EC3016CE10E94A52FED969FAF0E
:1028F0008EAFED97C3016DE10E94A52F5C0113E03F
:10290000412E512C460C571CC2016CE10E94A52F90
:10291000EB969FAF8EAFEB97C2016DE10E94A52FA2
:102920001C01C30167E10E94A52FC957DF4F99839E
:102930008883C758D040C3010E942430CB57DF4F53
:1029400099838883C558D040C30160E00E94A52FB9
:10295000CD57DF4F99838883C358D0402DB73EB7FA
:10296000205130400FB6F8943EBF0FBE2DBF8DB63C
:102970009EB60894811C911CE1E0F0E0EC0FFD1F75
:10298000ADB7BEB71296FC93EE931197E8E7F0E06F
:10299000D4011396FC93EE93129780EE94E0159673
:1029A0009C938E931497950140E050E060E070E0B6
:1029B00080E090E000E10E94050559016A01ED9672
:1029C0002EAD3FADED97C901A0E0B0E08A0D9B1D93
:1029D000AC1DBD1DF40186839783A087B187C957BD
:1029E000DF4F28813981C758D04033872287CB57A2
:1029F000DF4F88819981C558D04095878487CD570E
:102A0000DF4FA881B981C358D040B787A6870E94FD
:102A10006509EDB7FEB770960FB6F894FEBF0FBE0E
:102A2000EDBFC557DF4F8881CB58D040C457DF4F2B
:102A30009881CC58D040BE016F5F7F4F0E94784193
:102A400064E670E080E090E00E945E39C20167E1D8
:102A50000E94A52FCF57DF4F99838883C158D0405C
:102A6000C3010E942430C158DF4F99838883CF5718
:102A7000D040C20160E00E94A52FEF969FAF8EAFBD
:102A8000EF972DB73EB7205130400FB6F8943EBFB8
:102A90000FBE2DBF8DB79EB70196C757DF4F9983E5
:102AA0008883C958D040E1E0F0E0EC0FFD1FADB7DE
:102AB000BEB71296FC93EE931197E8E7F0E0DC01C5
:102AC0001396FC93EE9312978EE894E015969C93E0
:102AD0008E931497910140E050E060E070E080E058
:102AE00090E000E10E94050559016A01EB962EADC8
:102AF0003FADEB97C901A0E0B0E08A0D9B1DAC1D76
:102B0000BD1DC757DF4FE881F981C958D040868382
:102B10009783A087B187CF57DF4F28813981C1586C
:102B2000D04033872287C158DF4F88819981CF57A2
:102B3000D04095878487EF96AEADBFADEF97B7874E
:102B4000A6870E946509EDB7FEB770960FB6F89498
:102B5000FEBF0FBEEDBFC557DF4F8881CB58D040B9
:102B6000C457DF4F9881CC58D040BE016F5F7F4F74
:102B70000E947841C557DF4F8881CB58D040C45759
:102B8000DF4F9881CC58D04064E874E00E94164032
:102B90000E944B248C010E9448242DB73EB72A5036
:102BA00030400FB6F8943EBF0FBE2DBFEDB7FEB755
:102BB000319621E030E02C0F3D1FADB7BEB7129625
:102BC0003C932E931197A8E7B0E0B383A28325E549
:102BD00034E03583248317830683918780870E949E
:102BE0006509EDB7FEB73A960FB6F894FEBF0FBE73
:102BF000EDBFC557DF4F8881CB58D040C457DF4F5A
:102C00009881CC58D040BE016F5F7F4F0E947841C1
:102C10000E9445248C010E9442242DB73EB72A50C1
:102C200030400FB6F8943EBF0FBE2DBFEDB7FEB7D4
:102C3000319621E030E02C0F3D1FADB7BEB71296A4
:102C40003C932E931197A8E7B0E0B383A28326E2CA
:102C500034E03583248317830683918780870E941D
:102C60006509EDB7FEB73A960FB6F894FEBF0FBEF2
:102C7000EDBFC557DF4F8881CB58D040C457DF4FD9
:102C80009881CC58D040BE016F5F7F4F0E94784141
:102C90000E943F248C010E9439242DB73EB72E504C
:102CA00030400FB6F8943EBF0FBE2DBFEDB7FEB754
:102CB000319621E030E02C0F3D1FADB7BEB7129624
:102CC0003C932E931197A8E7B0E0B383A2832FEF34
:102CD00033E0358324831783068311861086938718
:102CE0008287158614860E946509EDB7FEB73E9669
:102CF0000FB6F894FEBF0FBEEDBFC557DF4F8881FA
:102D0000CB58D040C457DF4F9881CC58D040BE013B
:102D10006F5F7F4F0E9478410E944E242DB73EB7CF
:102D20002A5030400FB6F8943EBF0FBE2DBFEDB70E
:102D3000FEB7319621E030E02C0F3D1FADB7BEB796
:102D400012963C932E931197A8E7B0E0B383A28329
:102D500028EE33E0358324836683778380879187E9
:102D60000E946509EDB7FEB73A960FB6F894FEBF1C
:102D70000FBEEDBFC557DF4F8881CB58D040C45739
:102D8000DF4F9881CC58D040BE016F5F7F4F0E94CB
:102D90007841C257DF4F0FB6F894DEBF0FBECDBFEC
:102DA000CF91DF911F910F91FF90EF90DF90CF9027
:102DB000BF90AF909F908F907F906F905F904F905B
:102DC0003F902F9008958AEE93E03FDD80E090E001
:102DD00008950F931F93CF93DF938B01FC01C48160
:102DE000D581CE010E94F63FCE016BE50E94EE3FF9
:102DF0000F5F1F4F11F061E301C060E3CE010E943D
:102E0000EE3FCE016CE70E94EE3F8091780382FF97
:102E100005C0CE0163E575E00E94CB3F8091780349
:102E200083FF05C0CE016EE475E00E94CB3F809128
:102E3000780384FF05C0CE0169E475E00E94CB3FB2
:102E40000E94922CBC01CE014AE050E00E94494110
:102E5000CE0165E475E00E94CB3FDF91CF911F91D9
:102E60000F9108950F931F93DF93CF93CDB7DEB7E4
:102E700029970FB6F894DEBF0FBECDBF80917803BF
:102E800080FF20C08AEE93E04AE050E060E070E00E
:102E90000E941E2C90936E0480936D04029791F40F
:102EA0008AEE93E060EF73E00E94DB2BBC0190930D
:102EB0006E0480936D048AEE93E08BDF8AEE93E0DC
:102EC0000E94D52B8091780384FF4BC080916104D0
:102ED0008823A1F481E694E00E94903F892B71F051
:102EE0000E94C8386093690470936A0480936B04ED
:102EF00090936C0481E694E00E949A3F0E94C83847
:102F00002091690430916A0440916B0450916C04E3
:102F1000621B730B840B950B695E7340804090407D
:102F200000F10E94C8386093690470936A0480932A
:102F30006B0490936C048AEE93E087DC60916D04DF
:102F400070916E048AEE93E044DFE091EC03F0911F
:102F5000ED03648175818091EE039091EF030E94EF
:102F600078418091780382FF08C08AE793E069E3A3
:102F700074E043E354E00E94050C8091780383FFE2
:102F800021C086E897E06DE274E04EE652E00E94D0
:102F9000052D80912D048130A9F460912E0470914B
:102FA0002F048E010F5F1F4FC8010E94D72D609123
:102FB000EE037091EF03C8010E947C2D8DE294E036
:102FC0000E94FD2C29960FB6F894DEBF0FBECDBF30
:102FD000CF91DF911F910F910895EF92FF920F9380
:102FE0001F9380EA95E040E05BE460E070E00E94BF
:102FF000403D64E670E080E090E00E945E3980EA47
:1030000095E06EEC76E00E94164080EA95E067EB72
:1030100076E00E94164080EA95E06EE976E00E9434
:10302000CB3F82E4E82E86E0F82EC70140E855E267
:1030300060E070E00E94403D86E897E040EC52E19D
:1030400060E070E00E94403D84EE96E040E056E98A
:1030500060E070E00E94403D80EA95E068E976E03B
:103060000E9416408CE190E00E949E3F182F092F8D
:103070006AE04BE020E09CD410935704009358047E
:10308000812F902F40E05BE460E070E041D28091BE
:10309000570490915804909391058093900580EA8D
:1030A00095E06FE776E00E94CB3F80EF93E00E94CF
:1030B0006C2B80EF93E065E772E04DE250E10E94F7
:1030C000762B80EF93E06AE772E040ED5FE00E94CC
:1030D000762B80EF93E06CE572E043EE56E10E94C0
:1030E000762B80EF93E06FE772E046E45FE00E94AA
:1030F000762B80EF93E063E872E047E955E30E94A6
:10310000762B80EF93E06AE872E04CE25EE00E948A
:10311000762B80EF93E060E972E040EF52E10E948D
:10312000762B80EF93E065E972E046E952E10E9478
:10313000762B80EF93E065E572E046ED5EE00E945D
:10314000762B80EF93E068E972E042EE5DE00E944A
:10315000762B80EF93E06CE972E044E950E10E9445
:10316000762B80EF93E060EA72E040ED5DE00E9434
:10317000762B80EF93E064EA72E04AEA53E10E9422
:10318000762B8AEE93E060EA75E00E94772C80EA65
:1031900095E069E776E00E94164080EA95E06CE5EC
:1031A00076E00E94CB3F20E334E08BE08093300454
:1031B000F0923204E09231041092330430933504DB
:1031C0002093340482E080933604309338042093B3
:1031D00037048CE080933904F0923B04E0923A0487
:1031E0008DE080933C04F0923E04E0923D048BE439
:1031F00094E06CE374E049E354E226E334E20E9495
:10320000263080EA95E066E576E00E94164087E089
:1032100061E00E94C63980EA95E06FE376E00E94A3
:10322000CB3F84DA80EA95E069E376E00E941640BD
:1032300080EA95E064E276E00E94CB3F89EF94E07B
:10324000B0D480EA95E06EE176E00E94164080EA14
:1032500095E067E076E00E94CB3F64E670E080E0B6
:1032600090E00E945E3984EB90E20E94A1230E94CC
:10327000B623029739F08091EE039091EF036BEE45
:1032800075E006C08091EE039091EF036FEC75E05E
:103290000E9416408091EE039091EF035DDA80EA80
:1032A00095E069EC75E00E94164082E080932D0461
:1032B00080E590E068EA72E00E94122890932F0463
:1032C00080932E0480EA95E065EA75E00E94CB3F8A
:1032D00064E670E080E090E00E945E390E943C2449
:1032E0000E94362480EA95E06FE975E00E9416405E
:1032F00080EA95E068E875E00E94CB3F17DA80EA43
:1033000095E062E875E00E9416408091EE0390918E
:10331000EF0367E575E00E94CB3F8AEE93E060E043
:1033200070E057DD1F910F91FF90EF9008950F937C
:103330001F93CF93DF93FC01738D76957170A685F3
:10334000B7859585772329F08C91892309F454C09A
:1033500004C08C91892309F04FC08389948920E0AF
:1033600001972FEF8F3F9207D9F7C589D689A68598
:10337000B785158560E031E040E050E000E0CE0127
:10338000202F01972FEF8F3F9207D9F78C91812340
:1033900011F0632B03C0832F80956823330F4F5F99
:1033A0005F4F4830510559F78789908D20E001978C
:1033B0002FEF8F3F9207D9F7711160958091B1047B
:1033C0002091B20490E001968F73907030E08217E4
:1033D000930779F0E091B104F0E0EF58FB4F608380
:1033E0008091B10490E001968F7390708093B10446
:1033F00003C0838D8160838FDF91CF911F910F91E7
:1034000008951F920F920FB60F920BB60F921124D0
:103410002F933F934F935F936F937F938F939F93DC
:10342000AF93BF93EF93FF9380916F0490917004DB
:10343000009709F07CDFFF91EF91BF91AF919F91D1
:103440008F917F916F915F914F913F912F910F904D
:103450000BBE0F900FBE0F901F9018951F920F92EA
:103460000FB60F920BB60F9211242F933F934F93E9
:103470005F936F937F938F939F93AF93BF93EF93DC
:10348000FF9380916F0490917004009709F04FDFD3
:10349000FF91EF91BF91AF919F918F917F916F912C
:1034A0005F914F913F912F910F900BBE0F900FBEE8
:1034B0000F901F9018951F920F920FB60F920BB698
:1034C0000F9211242F933F934F935F936F937F93AA
:1034D0008F939F93AF93BF93EF93FF9380916F046C
:1034E00090917004009709F022DFFF91EF91BF9156
:1034F000AF919F918F917F916F915F914F913F918C
:103500002F910F900BBE0F900FBE0F901F9018952C
:10351000CF92DF92EF92FF920F931F93CF93DF939F
:10352000EC017A018B011A8E198E188E1F8A1E8A61
:103530001D8A1C8A1B8A20E030E06901CC0CDD1C4E
:10354000C20ED31EB601660F771F660F771FAB0141
:103550004B51594FFA0185919591A591B4918E15D2
:103560009F05A007B107E9F4FB01E751F94F8591E9
:1035700094919C8B8B8BFB01E551F94F8591949134
:103580009E8B8D8BFB01E351F94F85919491988F20
:103590008F8BFB01E151F94F859194919A8F898F1F
:1035A00006C02F5F3F4F2D30310509F0C6CF8F8900
:1035B000988D892B09F468C09C85292F2A502430C6
:1035C00040F0892F8253843020F08C50883008F0EE
:1035D00053C030916800243048F0892F82538430E2
:1035E00028F09E53983010F484E001C081E0832BD2
:1035F000809368002C85922F9A50943090F0822FFF
:103600008253843070F08C50883008F455C0A0E0AC
:10361000B0E0883018F0E0E0F0E007C0EDE6F0E060
:1036200004C0EBE6F0E0ABE6B0E04081943020F47B
:1036300030E02650304015C0223311F488E01AC023
:10364000233311F484E016C0243311F482E012C055
:10365000253379F0822F8E53883058F430E02E5382
:10366000304081E090E002C0880F991F2A95E2F770
:1036700001C081E0842B8C93898D9A8D20E0019785
:103680002FEF8F3F9207D9F780916F0490917004CC
:103690008C179D07A1F08B8D8E7F8B8F9FB7F89431
:1036A0001092B1048091B1048093B204D09370045D
:1036B000C0936F049FBF03C0ADE6B0E0AACFDF9117
:1036C000CF911F910F91FF90EF90DF90CF900895D1
:1036D00020916F04309170042817390731F49091CC
:1036E000B2048091B104981719F42FEF3FEF0FC087
:1036F000E091B204F0E0EF58FB4F20818091B204DA
:1037000090E001968F7390708093B20430E0C9010D
:10371000089520916F04309170042817390719F02B
:1037200020E030E00EC08091B1042091B20490E01E
:10373000805C9F4F821B910960E470E00E943646D6
:103740009C01C90108950F931F93DC0159968D9137
:103750009C915A97892B49F481E090E013969C93B1
:103760008E93129720E030E097C00FB7F8945B96E5
:103770008C915B975196ED91FC91529750962C91BC
:10378000509781FF8DC08081822B808359968D91C7
:103790009C915A97059620E001972FEF8F3F920753
:1037A000D9F75B968C915B9781FF35C031E040E0A3
:1037B00050E070E010E0832F90E08623972351962D
:1037C000ED91FC91529750962C915097892B29F0AE
:1037D000808120952823208303C08081822B8083D1
:1037E00059968D919C915A97212F01972FEF8F3FDA
:1037F0009207D9F7330F4F5F5F4F48305105D9F625
:103800005196ED91FC915297908150968C915097E2
:103810008095892333C031E040E050E070E010E053
:10382000832F90E0862397235196ED91FC91529738
:1038300050962C915097892B21F08081822B808388
:1038400004C0808120952823208359968D919C91D6
:103850005A97212F01972FEF8F3F9207D9F7330FF8
:103860004F5F5F4F48305105D9F65196ED91FC916D
:103870005297808150969C915097892B80830FBFDF
:1038800059968D919C915A9720E001972FEF8F3F89
:103890009207D9F721E030E0C9011F910F910895F7
:1038A000808120952823208371CF20916F0430914F
:1038B00070042817390749F49FB7F8941092B1049F
:1038C0008091B1048093B2049FBF089520916F044A
:1038D000309170042817390731F49091B204809127
:1038E000B104981719F42FEF3FEF0AC0E091B2042A
:1038F000F0E0EF58FB4F8081282F332727FD3095CC
:10390000C90108951F93CF93DF93EC01162F862FE3
:1039100060E00E94C6398B8D81FD04C0812F61E07B
:103920000E94793A1C87212F30E0C9018F51974FAF
:10393000FC0184918D872556374FF9016491E62F5C
:10394000F0E0EE0FFF1FEF57F74F859194919F879F
:103950008E87DF91CF911F910895FF920F931F9350
:103960008C01F62E862F61E00E94C6398F2D61E012
:103970000E94793A8F2D90E0FC01EF51F74FE491CE
:10398000D8015096EC9350978556974FFC0164915F
:10399000E62FF0E0EE0FFF1FE959F74F8591949164
:1039A00052969C938E9351971F910F91FF9008957B
:1039B000FF920F931F938C01F62EFC01138212824B
:1039C00088EE93E0A0E0B0E084839583A683B7837C
:1039D00082EB93E091838083148A138A168A158A76
:1039E000108E178A128E118E838D2170220F8C7F7C
:1039F000822B838FC801642FB0DFC8016F2D82DF57
:103A00001F910F91FF90089581E08093F8046093D7
:103A1000D5041092F6041092F70408952091D4046E
:103A200030E08091D304281B3109C90108954091E9
:103A3000D3048091D404481718F02FEF3FEF0AC049
:103A4000E42FF0E0ED54FB4F8081282F30E04F5FF2
:103A50004093D304C9010895E091D3048091D40424
:103A6000E81718F0EFEFFFEF06C0F0E0ED54FB4F62
:103A70008081E82FF0E0CF01089508951092FC04B2
:103A80001092FB0488EE93E0A0E0B0E08093FD0488
:103A90009093FE04A093FF04B093000582EC93E0A2
:103AA0009093FA048093F9040895CF92DF92EF92F5
:103AB000FF920F931F93CF93DF937C016B018A01D9
:103AC0008091F8048823A1F0C0E0D0E00DC0D701B8
:103AD000ED91FC91D601AC0FBD1F0190F081E02D5E
:103AE000C7016C9119952196C017D10780F303C0C7
:103AF000CB01642F5FD0C801DF91CF911F910F914F
:103B0000FF90EF90DF90CF900895DF93CF930F92C7
:103B1000CDB7DEB7FC0169838091F8048823C9F032
:103B20008091F704803238F081E090E093838283C3
:103B300020E030E014C08091F604E82FF0E0EA5273
:103B4000FB4F998190838F5F8093F6048093F704F5
:103B500004C0CE01019661E02DD021E030E0C90122
:103B60000F90CF91DF9108958091D50466ED74E0B8
:103B70004091F70421E0EED11092F6041092F70480
:103B80001092F8040895413208F040E2862F63EB6A
:103B900074E043D21092D3048093D4040895F3CFF9
:103BA00008951092D3041092D4041092F604109247
:103BB000F7041BC0482F613210F081E00895809116
:103BC0000505843011F082E0089560934E05ADE262
:103BD000B5E0842F9C01F90102C081918D938E2F55
:103BE000841B8617D0F380E008951092050584E1C8
:103BF00060E00E94793A85E160E00E94793AE9EB61
:103C0000F0E080818E7F808380818D7F808388E457
:103C10008093B80085E48093BC000895882349F020
:103C2000109271051092720510927305109274052E
:103C300013C08091710590917205A0917305B091A8
:103C400074050196A11DB11D8093710590937205B5
:103C5000A0937305B09374058091710590917205DE
:103C6000A0917305B0917405805A9648A140B04068
:103C700010F480E008951092710510927205109270
:103C8000730510927405B1DF81E0089585ED80938E
:103C9000BC0081E0C3DF04C080E0C0DF882331F4D2
:103CA0008091BC0084FDF8CF1092050508951F9205
:103CB0000F920FB60F920BB60F9211242F933F93D2
:103CC0004F935F936F937F938F939F93AF93BF9324
:103CD000EF93FF938091B90090E0887F90708036D9
:103CE000910509F4BFC081369105CCF58832910564
:103CF00009F47BC089329105B4F48031910509F44F
:103D00006FC0813191053CF4009709F40DC108970B
:103D100009F00DC165C08831910509F466C080972E
:103D200009F005C177C08034910509F489C0813458
:103D3000910544F48033910509F46EC0C89709F0E9
:103D4000F6C06EC08035910509F46EC088359105C6
:103D500009F47BC08834910509F0E9C0E7C08839CF
:103D6000910509F4D7C089399105ECF4883791059C
:103D700009F478C0893791054CF48836910509F427
:103D800071C08037910509F0D2C06CC088389105A8
:103D900009F4C0C08039910509F46AC080389105E2
:103DA00009F0C5C065C0803B910509F48BC0813B1B
:103DB00091054CF4803A910509F46CC0883A91055C
:103DC00009F0B5C07FC0803C910509F4A7C0883CCC
:103DD000910509F4A3C0883B910509F0A8C087C0EC
:103DE000809106058093BB0013C090912B058091B4
:103DF0002C05981708F09AC090912B05E92FF0E058
:103E0000E55FFA4F80818093BB009F5F90932B0505
:103E100085EC81C080E201C080E38093700586C09C
:103E200088E3809370057AC080912B059091BB0048
:103E3000E82FF0E0E55FFA4F90838F5F80932B05CA
:103E400090912B0580912C0562C080912B0590915B
:103E5000BB00E82FF0E0E55FFA4F90838F5F80931F
:103E60002B0564C083E08093050510926F05D0CFC9
:103E700080916F05803208F04DC080916F05909160
:103E8000BB00E82FF0E0E15BFA4F90838F5F8093F7
:103E90006F05BECF80916F05803230F4E0916F05E1
:103EA000F0E0E15BFA4F1082F1DE60916F05E09186
:103EB0000905F0910A058FE495E070E019951092DC
:103EC0006F052CC084E08093050510924D0510927B
:103ED0004E05E0910705F0910805199580914E0572
:103EE000882329F481E080934E0510922D0590914E
:103EF0004D05E92FF0E0E35DFA4F80818093BB0030
:103F00009F5F90934D0590914D0580914E059817B8
:103F100008F47ECF85E88093BC0009C085EC8093CF
:103F2000BC001092050503C010927005AFDEFF9132
:103F3000EF91BF91AF919F918F917F916F915F9121
:103F40004F913F912F910F900BBE0F900FBE0F908E
:103F50001F901895DF92EF92FF920F931F93E82E18
:103F6000062FF72E142FD22E413210F081E04FC0D1
:103F700081E054DE06C080E051DE882311F085E048
:103F800046C0809105058823B1F782E0809305053E
:103F90008FEF8093700510922B0510932C05ABE0EA
:103FA000B5E0202F3F2DC901FC0102C081918D9306
:103FB0008E2F801B8117D0F38E2D90E0880F991FD4
:103FC0008093060585EE8093BC0081E027DEDD202E
:103FD00039F40AC080E022DE882311F086E017C0A1
:103FE000809105058230B1F3809170058F3F11F407
:103FF00080E00DC080917005803211F482E007C02E
:1040000080917005803311F084E001C083E01F913E
:104010000F91FF90EF90DF9008950F931F93CF9330
:10402000DF93082FEB01142F413210F010E03EC057
:1040300081E0F4DD04C080E0F1DD882321F480918B
:1040400005058823C1F781E0809305058FEF8093F4
:10405000700510922B05115010932C051F5F000F57
:1040600001600093060585EE8093BC0081E0D6DDFB
:1040700004C080E0D3DD882321F4809105058130E0
:10408000C1F380912B05811710F410912B0520E0CE
:1040900030E00AC0FE01E20FF31FD901A55FBA4F5D
:1040A0008C9180832F5F3F4F2117A0F3812FDF91E9
:1040B000CF911F910F910895282F30E094E035950E
:1040C00027959A95E1F74AEF5FEFB901649F900158
:1040D000659F300D749F300D1124820F08951F933A
:1040E000CF93DF93EC0189EF94E068E670E08CDC1D
:1040F00089EF94E060E009DD89EF94E035DD182F69
:10410000882369F589EF94E068E670E047E050E0C5
:1041100046DD89EF94E08BDC8F77CEDF888389EFF3
:1041200094E085DCC9DF898389EF94E080DC8F7BB4
:10413000C3DF8A8389EF94E07ADC8B8389EF94E094
:1041400076DCBADF8C8389EF94E071DC8F77B4DFA3
:104150008D8389EF94E06BDCAFDF825E8E83812FED
:10416000DF91CF911F9108950F931F93DF93CF930A
:10417000CDB7DEB727970FB6F894DEBF0FBECDBF21
:104180008E010F5F1F4FC801AADF882329F020E0AE
:1041900030E040E050E004C0C80141D19B01AC01D7
:1041A000B901CA0127960FB6F894DEBF0FBECDBF86
:1041B000CF91DF911F910F91089589EF94E0F1CC99
:1041C0008F929F92AF92BF92CF92DF92EF92FF9227
:1041D0000F931F93CF93DF937B018C01EA012CE3B4
:1041E00030E040E050E00E9449466883C801B701D2
:1041F0002CE330E040E050E00E944946122F032FAC
:10420000F42EE52E622F732F842F952F2CE330E0B0
:1042100040E050E00E9449466983612F702F8F2D46
:104220009E2D2CE330E040E050E00E944946122FE2
:10423000032FF42EE52E622F732F842F952F28E164
:1042400030E040E050E00E9449466A83612F702FC1
:104250008F2D9E2D28E130E040E050E00E9449463D
:1042600079018A01C801B7016C5F7F4F8F4F9F4F63
:1042700027E030E040E050E00E9449466F5F6B83EA
:1042800020E0AA24BB24650101C02F5F822E99245F
:10429000F401EE54F84FCF0183709070892B99F49C
:1042A000CF0164E670E00E943646892B39F4CF01D5
:1042B00060E971E00E943646892B29F48EE691E090
:1042C000A0E0B0E004C08DE691E0A0E0B0E0A80E70
:1042D000B91ECA1EDB1EC501A0E0B0E0E816F90653
:1042E0000A071B0790F62E83F401EE54F84F83E083
:1042F000882E912C8E229F228114910499F4CF0153
:1043000064E670E00E943646892B39F4CF0160E9FB
:1043100071E00E943646892B29F48EE691E0A0E0F8
:10432000B0E004C08DE691E0A0E0B0E0A81AB90AC0
:10433000CA0ADB0A980187010A191B092C093D09E1
:10434000CF0164E670E00E9436467C01CF0160E94F
:1043500071E00E943646AC01EEECF3E060E06130C3
:1043600051F48114910449F4E114F10441F441152C
:10437000510529F002C0808103C08CE101C08DE1AC
:1043800090E0A0E0B0E0081719072A073B0740F0CB
:10439000081B190B2A0B3B0B6F5F31966C30F9F63B
:1043A0006F5F6D83802F8F5F8C83DF91CF911F9123
:1043B0000F91FF90EF90DF90CF90BF90AF909F90C4
:1043C0008F900895EF92FF920F931F937B018C01C2
:1043D00080918C0590918D05A0918E05B0918F05EF
:1043E000E816F9060A071B0769F0C801B70141E89A
:1043F00055E0E6DEE0928C05F0928D0500938E0587
:1044000010938F051F910F91FF90EF900895DADFC1
:104410002091870530E02E54384FC90108954F92FE
:104420005F926F927F928F929F92AF92BF92CF9244
:10443000DF92EF92FF920F931F93CF93DF934C0184
:10444000DC0116961C91612F70E080E090E020E87E
:1044500033E341EE51E00E9417465B016C0122EB11
:1044600037E0E12FF0E0EE54F84F1DC0C901837032
:104470009070892BB1F4C90164E670E00E94364661
:10448000892B39F4C90160E971E00E943646892B15
:1044900041F480E891E5A1E0B0E0A80EB91ECA1E83
:1044A000DB1E2F5F3F4F2E173F0701F7D4011596F4
:1044B0008C91482E5524C90164E670E00E9436466E
:1044C0007C01C90160E971E00E9436468C01C1E0BF
:1044D000D0E093E0692E712C6222732227C0C23093
:1044E000D10591F46114710479F4E114F10419F423
:1044F0000115110549F480E89BE3A6E2B0E0A80E9F
:10450000B91ECA1EDB1E11C0FE01E353FC4F6081C1
:1045100070E080E090E020E831E541E050E00E946A
:104520001746A60EB71EC81ED91E2196C415D5055E
:10453000B4F2D40112966C9170E080E090E020E13A
:104540003EE040E050E00E9417467B018C01F40100
:10455000618170E080E090E02CE330E040E050E0EA
:104560000E941746E60EF71E081F191FD4018C91F2
:10457000E80EF11C011D111D14966C9170E0615044
:104580007040882777FD8095982F20E831E541E03D
:1045900050E00E941746E60EF71E081F191FEA0C8E
:1045A000FB1C0C1D1D1DB701C801DF91CF911F9190
:1045B0000F91FF90EF90DF90CF90BF90AF909F90C2
:1045C0008F907F906F905F904F90089560937705E4
:1045D000709378058093790590937A052091A403D0
:1045E0003091A5034091A6035091A703260F371FD2
:1045F000481F591F20937B0530937C0540937D0510
:1046000050937E0582E090E09093800580937F0533
:104610000E94C838609388057093890580938A0545
:1046200090938B050895EF92FF920F931F931CC0F8
:104630002F5F3F4F4F4F5F4F2093770530937805A3
:104640004093790550937A0588EE93E0A0E0B0E0BE
:10465000E80EF91E0A1F1B1FE0928805F0928905DB
:1046600000938A0510938B050E94C838E090880556
:10467000F090890500918A0510918B056E197F09CC
:10468000800B910B20917705309178054091790549
:1046900050917A05685E73408040904048F6809162
:1046A0007B0590917C05A0917D05B0917E05281732
:1046B00039074A075B07C0F1E0917505F09176056F
:1046C000309791F11995611571058105910511F0EA
:1046D0007DDF2AC08091A4039091A503A091A60339
:1046E000B091A70320917705309178054091790525
:1046F00050917A05820F931FA41FB51F80937B05ED
:1047000090937C05A0937D05B0937E0520E030E07A
:1047100080917F0590918005892B11F021E030E098
:104720003093800520937F0560917705709178051F
:104730008091790590917A051F910F91FF90EF90EC
:1047400008959093760580937505809177059091F3
:104750007805A0917905B0917A0580937B059093B7
:104760007C05A0937D05B0937E055DCF5CDF8091D5
:104770007F0590918005089556DF49CE54DF22DEF3
:104780008091860590E008954EDF1CDE80918505BE
:1047900090E0089548DF16DE8091810590E008954D
:1047A00042DF10DE8091820590E008953CDF0ADE52
:1047B0008091830590E00895682FE0919005F09135
:1047C0009105A081B1812D913C91CF01F9011995FD
:1047D0000895EF92FF920F931F930E94C8387B01B8
:1047E0008C0188EE93E0A0E0B0E0E80EF91E0A1F0D
:1047F0001B1F0AC00E94C838E616F70608071907EB
:1048000018F42FEF3FEF2CC0E0919005F091910547
:10481000A081B18114962D913C911597CF01F9019A
:10482000199502973CF3A0919005B0919105ED91F7
:10483000FC9111970680F781E02DCD0119958C012F
:10484000A0919005B0919105ED91FC911197068092
:10485000F781E02DCD011995382F20E0202B312B49
:10486000C9011F910F91FF90EF90089588E0A4DF98
:10487000B0CF87E0A1DFADCF86E09EDFAACF85E095
:104880009BDFA7CF84E098DFA4CF83E095DFA1CFA3
:1048900082E092DF9ECF81E08FDF9BCFEF92FF928D
:1048A0000F931F930E94D6387B018C01F4DF0E9486
:1048B000D6389B01AC012E193F09400B510BB901B1
:1048C000CA011F910F91FF90EF900895DF92EF9230
:1048D000FF920F931F93CF93DF93FC01DB010097AF
:1048E00009F453C06115710509F44FC0E480F580E7
:1048F000E114F10409F449C014960D911C91159727
:104900000115110509F441C06281738177FD3DC035
:1049100012960D90BC91A02DB7FD37C0ED016A171E
:104920007B070CF4EB016A177B07F1F4E016F10644
:1049300079F161157105C1F42BC0F701E40FF51F82
:10494000D0802D2D332727FD3095F801E40FF51F7A
:104950008081992787FD9095281B390BD9F4DD209C
:10496000C9F04F5F5F4F02C040E050E04C175D0759
:1049700024F3C617D7071CF421E030E00BC0CA1798
:10498000DB0734F42FEF3FEF05C020E030E802C032
:1049900020E030E0C901DF91CF911F910F91FF908E
:1049A000EF90DF900895BF92CF92DF92EF92FF9247
:1049B0000F931F93CF93DF937C01B62E69012115CE
:1049C0003105A9F1009799F157FD31C0DC0112962C
:1049D0008D919C911397841795074CF1BA01F701BB
:1049E00022813381EB010BC0D7011496ED91FC912C
:1049F0001597EC0FFD1F80818B1521F02196C217B2
:104A0000D30794F3AE01461B570BC801F601199565
:104A10009C0197FD0EC0BE016F5F7F4FF701828141
:104A2000938186179707DCF620E030E002C02FEF75
:104A30003FEFC901DF91CF911F910F91FF90EF9050
:104A4000DF90CF90BF900895FF920F931F93CF9365
:104A5000DF938C01F62E009759F1FC01C281D381BE
:104A6000D7FD26C084819581892B11F1CE01019655
:104A70000E946E36DC01AC010097E1F020E030E0EE
:104A800010C0F80164817581620F731FFB01808182
:104A9000882309F48F2DFD01E20FF31F80832F5F20
:104AA0003F4F2C173D076CF3AC0FBD1F1C9202C08B
:104AB00040E050E0CA01DF91CF911F910F91FF902C
:104AC0000895CF93DF93EC01009711F12A813B8188
:104AD00037FD1EC08881998118161906CCF48217FB
:104AE0009307B4F08C819D81009791F00E940B3761
:104AF0008FEF9FEF9B838A8381E19CEF998388836B
:104B00001D821C82CE010E940B3720E030E002C0E3
:104B10002FEF3FEFC901DF91CF910895EF92FF9200
:104B20000F931F93CF93DF93EC01009789F1888156
:104B3000998197FD2DC000E010E012C07801EE0CC5
:104B4000FF1CEE0DFF1D80819181009739F0B9DFC8
:104B5000EC81FD81EE0DFF1D118210820F5F1F4F52
:104B600088819981EC81FD81081719073CF38FEF4B
:104B70009FEF998388839B838A83CF010E940B37A1
:104B80001D821C82CE010E940B3720E030E002C063
:104B90002FEF3FEFC901DF91CF911F910F91FF9050
:104BA000EF900895DF92EF92FF920F931F93DF93A0
:104BB000CF9300D00F92CDB7DEB77C01D62E0097F1
:104BC00009F440C0FC0184819581892BD9F182814F
:104BD000938197FD37C086E090E00E946E368C018D
:104BE000009781F184E090E0F801938382831C8335
:104BF0000B8388E090E00E946E36F80184839583F1
:104C0000EB81FC8184819581892B21F4CF010E9465
:104C10000B3718C0FA82E98211821082C7016D2D0C
:104C200040E050E02EE239E28E010F5F1F4FBBDE05
:104C30002B813C8197FF03C0C90170DF03C0C9010C
:104C40009C0102C020E030E0C9010F900F900F904E
:104C50000F90CF91DF911F910F91FF90EF90DF9018
:104C600008958F929F92AF92BF92CF92DF92EF9270
:104C7000FF920F931F93CF93DF938C01EB0161158C
:104C80007105E1F18C819D81892BC1F18A819B8124
:104C9000181619069CF580E2D8011D928A95E9F74D
:104CA00040E050E061E0C62ED12CE12CF12C1EC07A
:104CB000EC81FD81E40FF51F808190E0FC0133E081
:104CC000F695E7953A95E1F7E00FF11F8770907040
:104CD0004601570104C0880C991CAA1CBB1C8A956C
:104CE000D2F72081282920834F5F5F4F8A819B81E3
:104CF00048175907ECF220E030E002C02FEF3FEFF9
:104D0000C901DF91CF911F910F91FF90EF90DF903C
:104D1000CF90BF90AF909F908F9008958F929F9269
:104D2000AF92BF92CF92DF92EF92FF920F931F93B9
:104D3000DF93CF93CDB7DEB7A0970FB6F894DEBF61
:104D40000FBECDBF6C01FB017A015901480121154D
:104D5000310509F473C0009709F470C057FD6EC0A7
:104D6000DC0112964D915C9113974E155F050CF482
:104D700065C06115710509F461C08281938197FD59
:104D80005DC0009759F4C80160E070E0F901199521
:104D90009C01181619060CF44EC052C0019749F434
:104DA0000480F581E02DC6016081A701FCDD9C0136
:104DB00047C08E010F5F1F4FC80153DFB701780155
:104DC000F601428153818B0121C0D6011496ED91E9
:104DD000FC911597E00FF11F2081822F8695869513
:104DE0008695F701E80FF11D808190E0A0E0B0E02A
:104DF000277004C0B595A795979587952A95D2F702
:104E000081709070892B29F40F5F1F4F04171507CD
:104E1000E4F2A801461B570BC401F50119959C014A
:104E200097FD0EC0B8016F5F7F4FF60182819381BD
:104E3000861797072CF620E030E002C02FEF3FEFF7
:104E4000C901A0960FB6F894DEBF0FBECDBFCF91BB
:104E5000DF911F910F91FF90EF90DF90CF90BF9067
:104E6000AF909F908F900895CF92DF92EF92FF9234
:104E70000F931F93DF93CF9300D00F92CDB7DEB780
:104E80007C016B01009709F44EC0FC018281938183
:104E900097FD49C084819581892B09F444C061152F
:104EA000710509F440C0FB018281938197FD3BC0ED
:104EB00084819581892BB9F186E090E00E946E365D
:104EC0008C01009781F184E090E0F8019383828364
:104ED0001C830B8388E090E00E946E36F801848387
:104EE0009583EB81FC8184819581892B21F4CF010D
:104EF0000E940B3718C0FA82E98211821082C70122
:104F0000B60140E050E02EE239E28E010F5F1F4F04
:104F100005DF2B813C8197FF03C0C901FFDD03C082
:104F2000C9019C0102C020E030E0C9010F900F9040
:104F30000F900F90CF91DF911F910F91FF90EF9005
:104F4000DF90CF900895CF92DF92EF92FF920F9370
:104F50001F93CF93DF936C018B01009709F456C028
:104F600077FD54C086E090E00E946E36EC017C0133
:104F7000009709F44DC01B830A830115110519F42C
:104F800082E090E002C081E090E0AC01400F511F50
:104F9000483051051CF428E030E01EC0CA01969547
:104FA0008795842B952B9C013695279536952795CB
:104FB000282B392BC901E4E096958795EA95E1F70E
:104FC000822B932B292F3327282B392B2F5F3F4FF1
:104FD000241735070CF49A0139832883C9010E94EC
:104FE0006E369D838C83009721F4CE010E940B378F
:104FF0000DC00115110521F0B601A8010E94330969
:10500000EC81FD81E00FF11F108202C0EE24FF242D
:10501000C701DF91CF911F910F91FF90EF90DF902B
:10502000CF9008958F929F92AF92BF92CF92DF92CE
:10503000EF92FF920F931F93CF93DF934C015B018D
:105040006115710509F45DC0DB010D900020E9F7E1
:105050007D010894E108F108E61AF70A19F482E0E4
:1050600090E002C081E090E0AC014E0D5F1D483041
:1050700051051CF408E010E01EC0CA019695879502
:10508000842B952B9C013695279536952795282BB3
:10509000392BC90114E0969587951A95E1F7822B73
:1050A000932B092F1127082B192B0F5F1F4F041764
:1050B00015070CF48A01E016F1061CF586E090E075
:1050C0000E946E36EC016C010097E9F0FB82EA82E7
:1050D000C801081519050CF4C401998388830E943E
:1050E0006E369D838C83009721F4CE010E940B378E
:1050F00008C097012F5F3F4FB501A9010E943309F6
:1051000002C0CC24DD24C601DF91CF911F910F9105
:10511000FF90EF90DF90CF90BF90AF909F908F90D7
:105120000895AF92BF92CF92DF92EF92FF920F93CA
:105130001F93CF93DF935C01009709F459C0DC0102
:105140000D900020E9F77D010894E108F108E81AC4
:10515000F90A19F482E090E002C081E090E0AC012D
:105160004E0D5F1D483051051CF408E010E01EC0D4
:10517000CA0196958795842B952B9C01369527958A
:1051800036952795282B392BC90164E0969587958C
:105190006A95E1F7822B932B092F1127082B192BE6
:1051A0000F5F1F4F041715070CF48A01E016F10674
:1051B000FCF486E090E00E946E36EC016C010097F2
:1051C000C9F0FB82EA8219830883C8010E946E3607
:1051D0009D838C83009721F4CE010E940B3708C079
:1051E00097012F5F3F4FB501A9010E94330902C00B
:1051F000CC24DD24C601DF91CF911F910F91FF9048
:10520000EF90DF90CF90BF90AF900895FC019B018D
:10521000009701F16281738177FD1CC084819581C3
:105220000097C1F037FF04C0420F531F20E030E069
:10523000621B730B461757070CF4BA0116161706B4
:1052400024F089EA92E06DDF03C0820F931F7BDEBA
:105250009C0102C020E030E0C9010895CF92DF92A6
:10526000EF92FF920F931F93CF93DF937B016A011D
:10527000EC01EA81FB8120813181828193812817B1
:105280003907CCF08C0103C00817190784F1000F0F
:10529000111F20173107C4F7B801660F771F8481EB
:1052A00095810E94A337009711F1EA81FB819583D4
:1052B000848313830283EA81FB8180819181880F3B
:1052C000991F04811581080F191F88819981B701E1
:1052D000A6019CDFF80191838083EA81FB818081B4
:1052E000918101969183808320E030E002C02FEF0E
:1052F0003FEFC901DF91CF911F910F91FF90EF9088
:10530000DF90CF900895CF92DF92EF92FF920F93AC
:105310001F93CF93DF937C016B01009709F493C037
:10532000DC0114968D919C911597892B09F48BC003
:1053300012966D917C91139777FD85C04D915C918C
:10534000141615060CF07FC0461757070CF47BC0E7
:105350001C141D040CF077C0C416D5060CF476C0DE
:10536000B8E0CB16D1041CF408E010E01EC0C60162
:10537000969587958C299D299C013695279536957C
:105380002795282B392BC901A4E096958795AA95D6
:10539000E1F7822B932B092F1127082B192B0F5F75
:1053A0001F4F0C151D050CF48601401751070CF01A
:1053B0004DC0CA01E3E0880F991FEA95E1F7841B0D
:1053C000950B53E0660F771F5A95E1F786179707FD
:1053D000B4F4F70184819581B8010E94A337EC01F0
:1053E000009729F5D70114968D919C911597B601D8
:1053F0000E94A337EC01009731F1860118C0C80163
:105400000E946E36EC01009721F3F701228133816F
:105410002115310529F064817581A9010E943309A4
:10542000D70114968D919C9115970E940B37F70127
:10543000D583C483118300830280F381E02DEC0FB8
:10544000FD1F108203C02FEF3FEF02C020E030E0CD
:10545000C901DF91CF911F910F91FF90EF90DF90E5
:10546000CF900895FF920F931F93CF93DF93EC019A
:10547000F62E009719F10A811B8188819981801B82
:10548000910B802B912B97FD19C0B8016E5F7F4F58
:10549000CE0139DF892B91F4EC81FD81E00FF11F02
:1054A000F082EC81FD81E00FF11F11828A819B81E6
:1054B00001969B838A8320E030E002C02FEF3FEF0C
:1054C000C901DF91CF911F910F91FF9008950F9324
:1054D0001F93CF93DF93EC019B018A0177FF04C0F8
:1054E000060F171F20E030E017FD3FC02097E9F1BD
:1054F0008C819D810097C9F1EA81FB81F7FD35C060
:10550000688179816E177F0784F1161617066CF58E
:105510000115110569F12E173F0754F5A801420F37
:10552000531F4E175F071CF03B832A8316C0BF0131
:10553000641B750BAB01161617064CF4B801620F0D
:10554000731F680F791F820F931F0E943C098A8185
:105550009B81801B910B9B838A83EC81FD818A81D7
:105560009B81E80FF91F108203C02FEF3FEF02C0AD
:1055700020E030E0C901DF91CF911F910F91089594
:10558000AF92BF92CF92DF92EF92FF920F931F9351
:10559000CF93DF937C01009709F46CC0DC01149673
:1055A0008D919C911597892B09F464C02D913C91A4
:1055B000119712968D919C911397281739070CF427
:1055C00059C097FD57C0232B09F454C061157105CC
:1055D00009F450C000E010E013C0F6018081D7014B
:1055E0001496ED91FC911597E00FF11F80838823AD
:1055F00029F413961C930E93129739C00F5F1F4F17
:10560000F701808191816B01C00ED11E0817190727
:1056100024F313830283E60109900020E9F7219720
:10562000CC19DD09D7FD26C05E010894A11CB11C70
:10563000B501600F711F77FD1DC0C70164DE97FDC6
:1056400019C0FFEFCF3FDF0759F0D70114968D91B6
:105650009C911597800F911FB601A5010E943C09EE
:10566000F701828193818C0F9D1F9383828320E0B9
:1056700030E002C02FEF3FEFC901DF91CF911F91C2
:105680000F91FF90EF90DF90CF90BF90AF90089573
:10569000CF93DF93FC01CA013097C1F0C481D5815B
:1056A0002097A1F042815381841795077CF497FDE0
:1056B0000DC0481B590B8C0F9D1F70E00E942609DE
:1056C0009C01009719F02C1B3D0B02C02FEF3FEF00
:1056D000C901DF91CF910895FC01108280E014820E
:1056E00013828F5F34968F30D1F70895EF92FF9237
:1056F0000F931F93CF93DF93EC017A0108810F3052
:1057000018F02FEF3FEF16C010E0CB010ADD000FBD
:10571000111F000F111FFE01E00FF11F9283818303
:105720000C0F1D1FF801F482E38288818F5F88834C
:1057300020E030E0C901DF91CF911F910F91FF90E0
:10574000EF900895CF92DF92FF920F931F93CF9324
:10575000DF938C016B01FF2419C0CF2DD0E0FE0137
:10576000EE0FFF1FEE0FFF1FE00FF11F618172812F
:10577000C601ACD8892B49F4CC0FDD1FCC0FDD1F3F
:10578000C00FD11FEB81FC8107C0F394F801808129
:10579000F81618F3E0E0F0E0CF01DF91CF911F9110
:1057A0000F91FF90DF90CF900895FC01828193814B
:1057B0006AEA72E0E5CE0F931F93CF93DF93FC016B
:1057C000EB0160817181828193814EDB8C01DC0170
:1057D0008D919C9111970197B9F41496ED91FC91DC
:1057E0001597808191816AE070E040E050E050DFE1
:1057F000682FD8011496ED91FC91159780819181C5
:1058000070E041E050E063DED8011496ED91FC9128
:10581000159760817181CE0195DFFC01009719F425
:10582000CFEFDFEF03C0C8011995EC01C80176D9AD
:10583000CE01DF91CF911F910F910895CF92DF920A
:10584000EF92FF920F931F93CF93DF93EC017A01B6
:105850008B0110929205CA80DB80EC81FD81A081D2
:10586000B18114962D913C911597CF01F9011995AD
:10587000892B89F10E94C838E60EF71E081F191FF0
:1058800025C0EC81FD81A081B18114962D913C91C0
:105890001597CF01F9011995892B79F0AC81BD815C
:1058A000ED91FC9111970680F781E02DCD011995BE
:1058B000682F80939205C601D5DD809192058A30CC
:1058C00019F422E030E009C00E94C8386E157F0547
:1058D00080079107B0F221E030E0C901DF91CF915C
:1058E0001F910F91FF90EF90DF90CF900895EF926E
:1058F000FF920F931F938C017B018BEA92E011DCE6
:10590000F8019183808380E490E06AEA72E08ADBA8
:10591000F80193838283F582E4821F910F91FF90B7
:10592000EF900895DF93CF930F920F92CDB7DEB72C
:105930002091280830912908CE01019621153105C2
:1059400029F48E5298409A83898318C0AC01421B77
:10595000530BE0912A08F0912B0820E030E008C0BA
:10596000808191810296280F391F0280F381E02DFA
:105970003097B1F7240F351F3A83298389819A81A3
:105980000F900F90CF91DF910895EF92FF920F93B8
:105990001F93CF93DF93EC016A817B81625070404B
:1059A00042E050E033DC7C01FC018481958160E0C1
:1059B00070E040E150E00E94E106062F2A813B8121
:1059C0002350304010E041E007C0EC81FD81E80F3A
:1059D000F91F808118274F5F842F90E0821793076B
:1059E000A4F3C7016ED880E0101381E0DF91CF915E
:1059F0001F910F91FF90EF900895FC0182E080834A
:105A0000818192816FEA72E0BBCDEF92FF921F938A
:105A1000CF93DF93EC017B01BA01F70180818823EA
:105A2000D9F4C181D2818C819D814A815B814730CB
:105A3000510514F046E050E00E944D09182FCE01A8
:105A4000A4DF112311F4813019F4C701D6DF4EC051
:105A500081E0F70180834AC0E881F9810480F58103
:105A6000E02DCE011995181619060CF03FC0E881FB
:105A7000F9810680F781E02DCE011995182FF701E5
:105A80008081823041F4143289F583E08083818102
:105A9000928164E22AC0833049F5F701A181B28185
:105AA00012962D913C911397243031056CF0149689
:105AB000ED91FC911597E20FF31F339780818A32A5
:105AC00019F4F701108212C0143229F08D919C91C3
:105AD0002817390714F0C70190DF1D3039F01A304C
